:020000041000EA
:1000000000B5324B212058609868022188439860DF
:10001000D860186158612E4B002199600221596106
:100020000121F02299502B49196001219960352056
:1000300000F044F80222904214D00621196600F024
:1000400034F8196E01211966002018661A6600F04E
:100050002CF8196E196E196E052000F02FF8012189
:100060000842F9D1002199601B49196000215960AB
:100070001A491B48016001219960EB211966A021F2
:10008000196600F012F800219960164914480160C1
:100090000121996001BC002800D000471248134993
:1000A000086003C880F30888084703B5996A0420EC
:1000B0000142FBD001200142F8D103BD02B5186610
:1000C0001866FFF7F2FF186E186E02BD00000240BE
:1000D000000000180000070000035F00212200005C
:1000E000F4000018222000A00001001008ED00E03C
:1000F00000000000000000000000000074B24E7A12
:1001000000200420F7010010C3010010C5010010F9
:10011000C1010010C1010010C1010010C101001097
:10012000C1010010C1010010C1010010C701001081
:10013000C1010010C1010010C9010010CB01001065
:10014000CD010010CD010010CD010010CD01001037
:10015000CD010010CD010010CD010010CD01001027
:10016000CD010010CD010010CD010010CD01001017
:10017000CD010010CD010010CD010010CD01001007
:10018000CD010010CD010010CD010010CD010010F7
:10019000CD010010CD010010CD010010CD010010E7
:1001A000CD010010CD010010CD010010CD010010D7
:1001B000CD010010CD010010CD010010CD010010C7
:1001C00000BE00BE00BE00BE00BE00BEEFF3058054
:1001D000103800BEF2EB8871EC5202100C53021082
:1001E0003402001090A31AE700201F49086006C8D7
:1001F00081F3088810471D48006800282FD10DA4FE
:100200000ECC002902D000F012F8F9E71849194A7B
:10021000002000E001C19142FCD1174988471749ED
:1002200088471749884700BEFDE701C901C29A42C5
:10023000FBD370470C530210C0000020E0190020CF
:100240002C6C021000000420000004202C6C021012
:10025000001004200010042000000000704709482E
:1002600016F082FE0047000008ED00E0000000D01C
:10027000E019002038400020995C0110D9040010DA
:10028000555C01105756000006005250ABB3605346
:100290006C42021006005250861C03027C4202107F
:1002A000060052505422A29D98420210050052505E
:1002B000DE65F4682C6C0210F8B5C04610B5064C2B
:1002C0002378002B07D1054B002B02D0044800E017
:1002D00000BF0123237010BDF01A002000000000B1
:1002E00018090210044B10B5002B03D00349044831
:1002F00000E000BF10BDC04600000000F41A00205E
:1003000018090210062800D070470B07FCD5024BD5
:1003100001221A70F8E7C0462D40002000B5C3B096
:100320000822002140A817F0ADFF40A81AF076FD82
:10033000802140AA4900684614F060FF69460548DC
:1003400018F00CF918F0CAF8034B01221A7043B0E8
:1003500000BDC046180902102F40002000B5C1B0F2
:1003600080225200694604481AF0F4FE684618F0EC
:10037000C5F841B000BDC04600800340F0B5DE4680
:1003800057464E464546E0B587B004AF81460E005D
:100390001400984614F000FE002913DB18D0FA224E
:1003A0009200002316F072FE05002368EB1A3E4A05
:1003B000934213D8BD4603B0F0BCBB46B246A94633
:1003C000A046F0BD394B3A4A3F213A4815F046FC69
:1003D000FA21890016F01CFE0500E6E7EB464B46C5
:1003E0001B689A46306817F045FE0290039150460C
:1003F00017F040FE009001912F4A0021002016F0D6
:1004000087FDFF2303400733DB08DB006A46D31A6E
:100410009D4604AB9A46294B1B78DBB27B6049466C
:1004200009688946306817F025FE02900391484616
:1004300017F020FE009001917A682149504616F08D
:1004400053FD43461A7851461E4818F087F8504627
:100450001BF0B8FDC1B20222504600F0EDFB0028AF
:100460001BDB194818F04AF8184818F047F84346BB
:100470001B780133DBB242461370092B10D90023DD
:1004800013700E4A1370124A1370D0231B06802279
:1004900092049A6110229A6102E00E4818F02EF838
:1004A0002560DD4686E7C046881300002C0902104F
:1004B0003C0B021048090210940902102D40002044
:1004C000A0090210AC090210E4090210F0090210A0
:1004D0002F400020D809021070B596B014AD6D4BB6
:1004E0002A0003CB03C208A96B4B0A0013CB13C22B
:1004F00013CB13C213CB13C203CB03C21B881380CD
:10050000664E300000F04CFB654C266018F032F867
:10051000644817F0F3FF042013F0E0FAD0231B0621
:1005200010225A625A61FA20000114F081FC2168FD
:100530005D4818F013F8A1685C4818F00FF861687E
:100540005B4818F00BF81AF05FFD082229005948A3
:100550001AF08CFEFFF702FF574817F0FFFF22004A
:100560000121564800F040FB00283BDB544817F0BF
:10057000C5FF062013F0B2FAD02636064023B36238
:1005800000220121062013F0D9F94E4B0122082147
:10059000062013F047FA0121062013F0AFFB0021DB
:1005A000062013F0EFFD192013F098FA80239B0426
:1005B000736200231F226A441370069304AD424CF9
:1005C0002B0006CC06C31AF0BFFB28001AF0F2FB82
:1005D00002A8030006CC06C33C491AF061FC1023B4
:1005E000B36106E03A4817F089FFFEE7394B002275
:1005F0001A7000F007FB384B1B78002B03D1374BE8
:100600001B78002B44D0D0231B0610225A61802275
:1006100092045A618022324C5200210025481AF07F
:1006200099FD010020001AF0D9FD002802D1294BC4
:1006300000221A70274B1B78002BDAD0062229499A
:1006400027481BF0EDFC002806D006222649244846
:100650001BF0E6FC0028C9D100240094019401AAF3
:1006600069461F481AF0FCFC211C009817F09CFCFE
:100670000028BBD0211C019817F090FC0028B5D0B1
:100680001F236B4406AA01A96846FFF777FEADE772
:1006900030BFAEE7A00A0210A80A02108C38002072
:1006A000E00B0020100A0210380A0210480A02105B
:1006B000580A021000800340680A0210540B02100E
:1006C000840A0210050300102C0B02101D030010F9
:1006D000D8090210334000202D4000202F40002078
:1006E000E83C0020900A0210980A0210014B0122F7
:1006F0001A7070472440002070470000014B1860BA
:100700007047C04638320020014B98707047C04691
:10071000300C0020431E9841014B18737047C046AF
:10072000300C0020F0B5CE46474680B5ADB006008F
:10073000894612F04FFE27AD02232B7022AB9C4658
:100740001423624613701DAB98460F21197018A828
:100750000C39017003A913AC8CC88CC40CC80CC430
:1007600001200870244C200014308CCD8CC00CCD9E
:100770000CC0200028306246A8CAA8C028CA28C0D9
:1007800022004346A1CBA1C221CB21C22500643562
:100790005422280017F07CFD01235B4201930B33A8
:1007A000009302330B220121280012F099FE10223F
:1007B000B256A423E2541423F3562370326A28233A
:1007C000E25412F0D5FE0D494B460B700C4800F078
:1007D000D5FE00280CD1143001F0D4F909490020CD
:1007E00001F0E0F900202DB0C0BCB946B046F0BD24
:1007F00001204042F7E7C04604310020300C0020C1
:10080000F80B0020400C002010B5044B1B78002B87
:1008100000D110BD00F0B4FCFBE7C0462040002032
:1008200000B583B0084B1B78002B0AD100236A4621
:100830001370537001930021684600F075FF03B0F8
:1008400000BD00F0EFFCF1E72040002070B504008F
:10085000084B1B78002B0AD1074D627861686868E5
:1008600017F016FD63786B7023782B7070BD00F065
:1008700019FCF1E720400020F00B002010B5044BDC
:100880001B78002B00D110BD00F04CFBFBE7C046ED
:100890002040002010B50400084B1B78002B07D126
:1008A0000523E356013306D0002001F03DF810BDCA
:1008B00000F0FCFAF4E700F0FBFEF8E7204000202F
:1008C00010B5044B1B78002B00D110BD00F08EFA40
:1008D000FBE7C0462040002010B5044B1B78002BDE
:1008E00000D110BD00F030FAFBE7C04620400020E8
:1008F000F0B5DE4657464E464546E0B591B08046D7
:100900009A4B1D68002D31D0012303702B689A4645
:100910006B689946AF68ED68954B1C68002C61D0F8
:1009200000239B4643465A461A702668A3680193E3
:1009300063680093E568342302AA13758D4B08930E
:1009400007A80EF007FA062302AA13755B46089360
:1009500007A80EF0FFF9002E38D000234246D361DD
:100960000024BB46A8463500160010E02F00A9461B
:10097000AA46D1E7600003AF28183A007E491BF071
:10098000B3FAF3691A023B781343F3610134032C81
:10099000F0DD5F464546B04607A80723037043468F
:1009A000DB6943600EF0D6F9019C5346002B2AD038
:1009B0000026A2461C00072E16DC700003AB9A1915
:1009C00020186D491BF090FA0136F4E76B4B9B68D9
:1009D000984702F015FE6A49002002F017FE4346D0
:1009E000D861D9E70094E0E7544607AE022333709C
:1009F00003AB089330000EF0ADF94346581C08993C
:100A0000082202F00EFE4B46002B1CD00026A14609
:100A10001C00072E08DC700003AB9A1920185649F9
:100A20001BF062FA0136F4E74C4607AE032333703D
:100A300003AB089330000EF08DF908990822404668
:100A4000093002F0EEFD002F1AD0002607E07000FA
:100A500003AB9A19381848491BF046FA01360F2E95
:100A6000F5DD082302AA137503AF089707A80EF057
:100A700071F9092302AA1375089707A80EF06AF9FD
:100A8000002C12D0002707E0780003ABDA192018F9
:100A900039491BF029FA01370F2FF5DD07A80F237D
:100AA000037003AB43600EF055F9009B002B22D07E
:100AB0000024009E07E0600003AB1A1930182E498D
:100AC0001BF012FA01340F2CF5DD0C2302AA13756A
:100AD00003AC089407A80EF03DF90D2302AA137584
:100AE000089407A80EF036F90E2302AA137508948D
:100AF00007A80EF02FF9002D29D0002616E0B4002B
:100B00001D4F281902AA39001BF0EEF9A01C281865
:100B100002AB5A1C39001BF0E7F902AB1A7812023B
:100B20005B781343710003AA8B520136052EE6DD74
:100B3000232302AA137503AC089407A80EF00AF940
:100B4000242302AA1375089407A80EF003F90D4B8D
:100B50001B78002B06D111B0F0BCBB46B246A946AB
:100B6000A046F0BD404600F0AFF8F4E7682F002043
:100B70000C1B002000040001780B0210F80B002071
:100B8000FFFFFF012040002010B5044B1B78002B15
:100B900000D110BD00F082F8FBE7C04620400020E5
:100BA000F0B5C64600B588B0050006AC200012F0CE
:100BB0000CFB227863789846A178E07826796779EB
:100BC000A379E47905940493039702960190009128
:100BD00043460449280016F087F9280008B080BC75
:100BE000B846F0BD800B021010B5044B1A60044BE0
:100BF00000221A60FFF796FD10BDC0460C1B0020B6
:100C0000682F002010B582B001F036F801A812F06C
:100C1000FDFA084B1B78012B06D0012401A812F025
:100C2000FAFA200002B010BD024B00221A70002414
:100C3000F4E7C0462440002000B583B06B461A702C
:100C4000597001900021684600F06EFD002801D126
:100C500003B000BD01204042FAE70000F8B50700EC
:100C60000E000024002506E00A2017F013FC0025E2
:100C700005E00134E4B2B4420AD2002DF4D1395D6A
:100C8000054817F06BFC631C1B07F2D10125F0E748
:100C90000A2017F0FFFBF8BDA40E021010B50C00DF
:100CA000012807D0054817F029FC2100044817F057
:100CB00055FC10BD034817F021FCF6E7E40E0210C6
:100CC0001C0F0210AC0E021070B5050041781948D7
:100CD00017F044FC012405E02B195978164817F049
:100CE0003DFC0134072CF7DD0A2017F0D3FB697AAD
:100CF000124817F033FC012405E02B19597A0E48ED
:100D000017F02CFC0134072CF7DD0A2017F0C2FB8A
:100D1000697C0B4817F022FC0124032C06DC2B19FC
:100D2000597C054817F01AFC0134F6E7054817F01E
:100D3000E5FB70BD300F0210440F02104C0F021083
:100D4000600F02108012021070B5040015000B78BD
:100D5000012B0DD0032B27D0002B1BD01A4817F0E6
:100D6000CDFB1A4817F0CAFB194817F0C7FB08E07B
:100D7000154817F0C3FB174817F0C0FB144817F0CD
:100D8000BDFBA200144BD158144817F0E7FB0B2C05
:100D900014D070BD0C4817F0B1FB114817F0AEFB32
:100DA0000B4817F0ABFBECE7074817F0A7FB0D4823
:100DB00017F0A4FB064817F0A1FBE2E729000A4858
:100DC00017F0CCFBE5E7C046740F02107C10021050
:100DD000E00F0210AC0F0210900C0020B0100210B7
:100DE0001410021048100210C410021070B5040054
:100DF00015000B78052B2CD00DD8012B17D0042B08
:100E000031D1204817F07AFB1F4817F077FB1F48B5
:100E100017F074FB14E0092B25D11A4817F06EFB6C
:100E20001B4817F06BFB194817F068FB08E01548E2
:100E300017F064FB174817F061FB144817F05EFBCE
:100E4000A200154BD158154817F088FB0B2C14D075
:100E500070BD0C4817F052FB114817F04FFB0B48C0
:100E600017F04CFBECE7074817F048FB0D4817F06C
:100E700045FB064817F042FBE2E729000A4817F055
:100E80006DFBE5E7DC10021048110210E00F0210C4
:100E90007C11021014110210900C0020B0100210EE
:100EA000B0110210E4110210C410021010B50400B9
:100EB00003681B78002B18D00523C356002B00D0E5
:100EC00010BD114817F01AFB104817F017FB2368E4
:100ED000D9690F4817F042FB0E4817F00FFB0421A9
:100EE00061560D4817F03AFBEAE7074817F006FB92
:100EF0000A4817F003FB2368D969094817F02EFB4D
:100F0000044817F0FBFADBE7181202104C1202102B
:100F100054120210801202106C120210841202107D
:100F20008C12021010B58AB004000378002B41D057
:100F3000484817F0E3FA63789B00474A99584748B6
:100F400017F00CFBE168464817F008FB0A2017F081
:100F5000A1FA00F037FD434B195C434817F0FEFA45
:100F60000A2017F097FA217C404817F0F7FA637CC3
:100F7000002B2AD10A2017F08DFA0A2161563C482D
:100F800017F0ECFA01A81E2303700DF0F1FD002804
:100F900033D018216156374817F0E0FA01A823230F
:100FA00003700DF0E5FD041E31D00A2017F072FA2F
:100FB0000AB010BD304817F0A1FA63789B00264AAA
:100FC0009958264817F0CAFAF2E72C4817F0C6FAE3
:100FD000237A012B0DD1637A002B08D028492948A8
:100FE00017F0BCFA617C6069FFF738FEC2E726495A
:100FF000F5E7264817F082FAF4E7627E53009B1863
:101000009B00029AD158224817F0A8FAC1E721485C
:1010100017F0A4FA00F0B0FD092817D880001E4B85
:101020001B589F46029B19881C4817F097FA0A2004
:1010300017F030FAB9E76300029A995A174817F087
:101040008DFA0134E4B2042CF5D9F0E7144817F016
:1010500085FAECE7E8120210500C0020B0100210E4
:1010600020130210381402105413021068130210D7
:10107000A8130210D4130210B01202107C13021035
:10108000AC1202108C130210A41202109C13021056
:10109000C0130210E81302103C140210F8130210DF
:1010A0000014021070B586B005000C006946284B8C
:1010B0000A0043CB43C243CB43C22378002B33D037
:1010C000244817F01BFA63789B00234A9958234859
:1010D00017F044FAE168224817F040FA1023E3566B
:1010E0009B006A4699581F4817F038FA29781E481D
:1010F00017F034FA6B78002B21D10A2017F0CAF9C7
:1011000008216156194817F029FA09216156184833
:1011100017F024FA0A216156164817F01FFA0A2020
:1011200017F0B8F906B070BD134817F0E7F9637807
:101130009B00094A9958094817F010FAF2E70F483E
:1011400017F0DCF969786868FFF788FDD5E7C046D5
:10115000A81602109C140210500C0020B0100210AF
:10116000D4140210081502101C150210A813021046
:1011700040150210541502106414021030150210AC
:1011800010B504004378022B0BD0032B32D0012B77
:1011900003D01A4817F0B2F910BD194817F0AEF98C
:1011A000FAE74168174817F0D9F9A17D164817F0FA
:1011B000D5F9164817F0D2F9200017300621FFF7AD
:1011C0004DFD0A2017F066F9E168114817F0C6F9DD
:1011D000217C104817F0C2F91223E15E0E4817F087
:1011E000BDF9142161560D4817F0B8F90A2017F01F
:1011F00051F9D1E70A4817F081F9CDE768150210D7
:10120000A0150210D81502100016021014160210B4
:1012100024160210A81302104015021054150210D3
:101220003816021010B5034B195C034817F096F9F5
:1012300010BDC0463814021070160210014B188001
:101240007047C0461E40002030B58BB001AC332340
:10125000237020000DF08CFC029D3C4B1C88002C60
:1012600002D120000BB030BD0DF0FCFB00286AD18C
:10127000364B1B88012214001C401A421DD1334BEF
:101280001B889B0720D4314B1B885B0725D42F4B31
:101290001B881B072BD42D4B1B88DB0633D42B4B11
:1012A0001B889B063AD4294B1B885B0642D4274BEC
:1012B00000221A800DF0CCFBD3E700223421280055
:1012C00011F001FD0400DAE728003430342218213F
:1012D00011F0F9FC2418A4B2D5E728004C30AC2159
:1012E0004C22490011F0EFFC2418A4B2CFE72800EB
:1012F000A530FF30D222D0215200490011F0E3FC8A
:101300002418A4B2C7E7D1239B00E818D122920089
:10131000A42111F0D8FC2418A4B2C0E7FA239B0042
:10132000E818FA2294219200C90011F0CCFC24188C
:10133000A4B2B8E7064BE8181A00182111F0C3FC54
:101340002418A4B2B3E700248BE7C0461E40002057
:101350008808000030B58BB001AC33232370200027
:101360000DF006FC029C0021342011F0C8FC00287E
:1013700002D100200BB030BD3421182011F0BFFC89
:10138000002801D10020F5E7AC204C21400011F0ED
:10139000B6FC002801D10020ECE7D221D020490082
:1013A000400011F0ACFC002801D10020E2E7D1217F
:1013B0008900A42011F0A3FC002801D10020D9E766
:1013C000FA2194208900C00011F099FC002801D175
:1013D0000020CFE70949182011F091FC002801D125
:1013E0000020C7E78A252D0100222900200011F0E6
:1013F00078FCA842BED00020BCE7C04688080000A8
:1014000070B505000E0000240EE0032D0AD11B6A02
:10141000002B07D03000984704E05B69002B01D017
:1014200030009847013464B2032C17DCA3000C4A47
:101430009B58002BF6D0022D0AD0E6D8002DECD018
:10144000012DEFD19B69002BECD030009847E9E7E4
:10145000DB69002BE6D030009847E3E770BDC0465B
:101460008020002010B504000C480123037063782D
:1014700043700223E3568372E368C3600323E35699
:1014800003762369437623794372054B1B685B6AB5
:10149000984721000020FFF7B3FF10BD2C0D00205E
:1014A0007C20002030B587B001AC092323702000D8
:1014B0000EF060F80500084B1B68DB69059A2100F7
:1014C0009847059A054B1A60002D02D1002007B0FD
:1014D00030BD01204042FAE77C200020B41F0020EC
:1014E00030B587B001AC0B23237020000EF042F81A
:1014F0000500084B1B68DB69059A21009847059A8F
:10150000054B1A60002D02D1002007B030BD01202C
:101510004042FAE77C200020B41F002010B588B0BC
:1015200003AB01221A70114A1268D2785A7100284E
:1015300014D002221A710E4B013A1A700D4B1B681F
:10154000DC6903A80EF016F8079B01931A0003A9A3
:10155000A047079A084B1A6008B010BD03AB0122E0
:101560001A71034B00221A70E8E7C0469020002051
:10157000F00C00207C200020B41F002030B58BB080
:1015800003000A003C490A603C4908603C483D4968
:1015900001603D4941603D4981603D49C1603D492F
:1015A0001C680C605C684C603B4C8C60DB68CB60FA
:1015B0003A4B00241C7012780DF076F8002852D1B6
:1015C000FFF7C8FE011E04D02C4B1B681B690020CE
:1015D000984701AC0223237020000DF0C9FA304D6A
:1015E000681C0822616802F01CF8032323702000A5
:1015F0000DF0BEFA280009300822616802F011F8E7
:101600000423237020000DF0B3FA280011300422C7
:10161000616802F006F81D232370174D2B681B79B3
:10162000237120000DF096FB052323702B685B7857
:10163000237120000DF08EFB2B6858790EF0A0F975
:101640000DF006FA0123237020000DF091FA002816
:101650000CD12379002B0CD1084B1B685B69104817
:101660009847002003E00120404200E000200BB03A
:1016700030BD0020FBE7C046902000207C200020E9
:10168000CC20002065140010DD190010991A0010FC
:10169000D9170010BC2000203D120010234000206C
:1016A000F00C0020014B18687047C046B41F0020A2
:1016B00010B5024B1878FFF731FF10BDF00C002079
:1016C00000B58BB001A8012303700DF051FA00287A
:1016D00005D101AB1879002802D0012000E00020DC
:1016E0000BB000BD70B50CF03FF8051E01D028000E
:1016F00070BDFFF7E5FF012801D1002405E0FFF7E9
:10170000D7FF0135F3E7013464B2032CEFDCA3000B
:10171000044A9B58002BF6D0DB6898470028F2D08B
:101720000500E4E78020002030B589B004000D00FA
:10173000FFF7C6FF012832D1224B1D726B1E9D415F
:1017400003AB1D70204A1268D27852B29A73607847
:1017500002A90DF09FF9002828D003AB00221A70CF
:1017600005929A81174A1300103303CC03C3164B1A
:101770001B68DB785BB2937203A80DF0F7FF0400DF
:10178000124B1B689B69079A019203A99847079A15
:101790000F4B1A60002C11D1002009B030BD0D4B49
:1017A0001878FFF7BBFE01204042F6E7227803AB32
:1017B0001A7162789A8162680592D3E701204042EB
:1017C000EBE7C0462C0D0020902000207C2000205C
:1017D000B41F0020F00C002030B58BB00400334A59
:1017E00000231370437853700D2B05D0304B1B68CA
:1017F0009B6A11000020984721000320FFF700FE9C
:1018000023780A2B2FD00E2B0FD0062B01D00BB034
:1018100030BD00236A46137153710293254B1B6838
:10182000997801A8FFF780FFF1E700256B461D714D
:101830001D7201A80DF08EFA1F4C012363706560C4
:10184000A575200017300622002101F002FF184D77
:101850002B68DB6A002098472B681B6B2000984799
:10186000FFF720FED3E763780D2B0FD01248032338
:101870004370031D043426CC26C326CC26C322681D
:101880001A600B4B1B681B6B9847C0E70A480B3B61
:101890004370031D043426CC26C326CC26C32268FD
:1018A0001A60034B1B681B6B9847B0E7180D0020AC
:1018B0007C20002090200020F81C002030B589B04A
:1018C00003AC0C232370053B02001A40207907214A
:1018D000884310432071C2B21340237120000DF0E1
:1018E00049FE05000D4B1B68DB69079A21009847EC
:1018F000079A0B4B1A60002D0CD100236A46137116
:1019000053710293074B1B68997801A8FFF70CFFEE
:1019100009B030BD01204042FAE7C0467C200020DB
:10192000B41F00209020002010B58AB004000023CE
:101930006A46137101A80DF01BF96B461B7AA3428E
:1019400033D0012C17D0022C1CD0002C03D0002443
:1019500020000AB010BD002B01D10024F8E701A837
:10196000002303710DF0F6F9002820D1134B1B68FA
:10197000DB6A9847ECE7FFF795FD0400104B012266
:101980001A70E5E7002B0DD1002401A80223037192
:101990000DF0E0F900280DD1084B1B68DB6A02301E
:1019A0009847D5E701246442EFE70024D0E70124FB
:1019B0006442CDE701246442CAE7C0467C2000208F
:1019C0002340002000B58BB000236A46137101A8A4
:1019D0000DF0CEF86B46187A0BB000BD10B584B090
:1019E0000400234A0123137043785370002B38D12D
:1019F0000423C356110013720E22835E4B72102310
:101A0000C3568B724369CB601123C3560B74C378E2
:101A10006A461372037B537283680393154B1B68EA
:101A20009B6A02A89847237F002B05D0114B1B68A7
:101A30005B6B00210120984721000120FFF7E0FCAB
:101A40006379012B0FD0236A002B0AD000236A464A
:101A5000137053700193084B1B6899786846FFF721
:101A600063FE04B010BDFFF7ADFF0028EED0EAE73B
:101A7000180D00207C2000209020002000B58BB0A5
:101A80002C236A46137101A80DF072F86B460820EA
:101A900018560BB000BD000070B58AB00400314884
:101AA00000230370637843702F4B1B685B6A984771
:101AB00021000220FFF7A4FC23780B2B3FD00AD88B
:101AC000012B1ED0092B34D1284B1B78002B30D092
:101AD000FFF706FD2DE00C2B2BD16378002B3AD1BC
:101AE00000246B461C7101236A46137201A80DF095
:101AF00031F91D4B1B68DB6A012098471B4B1C709A
:101B000017E001AD07232B7028000DF031F8184EB7
:101B10003368029ADA61FFF7B1FF30716378002B06
:101B200009D1134B00225A710F4B1B681B6A1048D6
:101B300098470AB070BD0E4BFF225A71F4E76378E4
:101B4000002B05D10B4B1B68187BFFF7B7FEF0E7A6
:101B5000FFF7A8FCEDE7074B1B68187BFFF7AEFE0D
:101B6000E7E7C0462C0D00207C2000202340002009
:101B7000100D002090200020014B1B681878704742
:101B80009020002000B58BB001AB2F221A7002907C
:101B900018000DF0DFF8002801D10BB000BD0120C6
:101BA0004042FAE770B504000D00022828D006D89C
:101BB000002809D0012826D100F0C2FC06E0032845
:101BC00021D101F05FFA01E001F020F800281AD0DD
:101BD000A4000E4BE0500E4B1B689A694262DA6912
:101BE00082620C4AC2620C4A02635B6B43634468C4
:101BF0000A4B1B689A7999682800A047002070BD9D
:101C000001F0E4FCE2E701204042F8E780200020F8
:101C10007C2000201D150010A5140010902000202D
:101C200010B58000044BC3589B68002B01D0984727
:101C300010BD0020FCE7C0468020002070B50024C5
:101C400001E0013464B2032C12DCA300094A9B5862
:101C5000002BF6D01B69002BF3D0E0B2FFF7E0FFBA
:101C60000028EED0A500034BEB581B699847E8E726
:101C700070BDC0468020002010B5094B1B6E002BA4
:101C800000D098470CF0D6FCFFF7DEFA011E04D016
:101C9000044B1B681B6901209847FFF7CFFF10BD5D
:101CA000F43102107C20002010B5030005480068C4
:101CB000002806D00468002C03D051430800190006
:101CC000A04710BDB81F002010B5030005480068EC
:101CD000002806D04468002C03D0514308001900A6
:101CE000A04710BDB81F00200300C208885C07226F
:101CF0009A43104101231840704710B507248443CC
:101D00000123A340DBB2A240D2B2C0080C5C9C43CA
:101D100012190A5410BD0022002107E0012393404C
:101D20000340D340C918C9B20132D2B21F2AF5D933
:101D3000012901D0002070470120FCE730B50023C5
:101D400004E0C45CCD5C6C40C45401339342F8DBC6
:101D500030BDF8B5CE46474680B507008946904667
:101D6000002510E0AEB239003000FFF7BDFF0400DF
:101D700049463000FFF7B8FF4440E2B23900300076
:101D8000FFF7BBFF01354545ECDBC0BCB946B046AB
:101D9000F8BD030040115A10584080058023DB0332
:101DA000184010187047F0B5C64600B504000D0085
:101DB00090460800FFF7AFFF002809D00126E30096
:101DC0001B191B011B1BDC00E41A0134002307E074
:101DD0000026F4E74246D218002111700133DBB22D
:101DE000EA109A42F6DA00270EE02000FFF7D1FF52
:101DF0000400711915F0E4F8A942F6DA88B201225C
:101E00004146FFF77AFF01376B10BB4202DD8021AC
:101E10004902F1E780BCB846F0BD70B506000D0080
:101E2000002401E00134A4B2AC4206D2310020000B
:101E3000FFF75AFF0128F5D100E00024200070BD13
:101E400070B506000D00002401E00134A4B2AC42DC
:101E500007D231002000FFF747FF0128F5D100200D
:101E600000E0012070BD000010B5124A4223D35A91
:101E700000E00133421E9A420FDD0E4A92889A42D8
:101E8000F7DD0C4940240A5B013292B20A531C0070
:101E90000834640009194A80EBE7064A92889A429E
:101EA00003DD044A4223D05210BD013201494223CE
:101EB000CA52F9E7B81F00200100002001E00130FC
:101EC00080B2084B9B88834209D902000832520035
:101ED000044B9B185A884B1C9A42F0D100E000201A
:101EE0007047C046B81F0020F8B5CE46474680B5BB
:101EF00006000C1E90461CD04D1E4D436B10150065
:101F00004D43ED1AEF10EB175B0FED18072215404C
:101F1000ED1A002C12D000239946A1450ED20022C2
:101F200031004846FFF7E9FE4B4601339BB2994624
:101F3000F3E700250027ECE70134A4B2444511D2B1
:101F40000A4BDB191A7B07235B1B1A4101231A403A
:101F500031002000FFF7D1FE0135082DECD101370B
:101F60000025E9E7C0BCB946B046F8BDB81F00205F
:101F7000F0B5C64600B507000C00160000290ED0CB
:101F80004D1E4D436B100D005543ED1AEB10984656
:101F9000EB175B0FED1807221540ED1A08E000253E
:101FA0000023984604E00135082D16D00134A4B270
:101FB000B44217D239002000FFF796FE0028F2D174
:101FC0000A4A42440C2010560721491B01238B402A
:101FD000DB435BB203401373E5E701239C46E04417
:101FE0000025E3E780BCB846F0BDC046B81F00201E
:101FF00070B582B005000E00244B1A60988099716C
:10200000002242215A5202395A529A60002308E0B3
:102010001C00083464001D4A12190121518001334B
:102020009BB2142BF4D90023002B01D000230BE02A
:10203000164AD2183C32002111700133F4E7134ADA
:10204000D218FF2111730133042BF8D9002400E0CA
:10205000013433006B43A3420FD90C4B1B68002B98
:10206000F6D01A68002AF3D001A9094A12780A703A
:102070001B68012220009847EAE7044B0022402118
:102080005A5202315A5202B070BDC046B81F0020E9
:10209000C0160210004870471A040000F0B5DE4672
:1020A00057464E464546E0B591B0040089460322A6
:1020B00000210FA801F0CDFA3222002102A801F080
:1020C000C8FA0122002101A801F0C3FA012200216F
:1020D000684601F0BEFA904BDC8742229B5AA3422D
:1020E00000D913E18C4B9B88A3420FD28A4A40232C
:1020F000D35A052B1CD944230121D154002011B0FF
:10210000F0BCBB46B246A946A046F0BD824DAA79B6
:10211000611E89B24846FFF7C7FDE31D5B00ED185D
:1021200000236B802000FFF79FFE01204042E6E77E
:102130002000FFF799FE784A4023D05A0028DED0CD
:102140009188601A0FAAFFF72EFE0024002609E0EE
:10215000013880B2012201A9FFF7CFFD002E00D186
:10216000013601346C4B9B88A3421FDDA5B20FA939
:102170002800FFF7B9FD0128F3D1220008325200F0
:10218000654B9B1858880028E2D100220FA928002F
:10219000FFF7B3FD604FBA79290002A8FFF794FD5D
:1021A000BA7902A94846FFF7C9FDDAE75A4A40233F
:1021B000D15A01A8FFF731FE0400002E2CDD56494C
:1021C0003C312000FFF790FD012828D1524D4026D8
:1021D000AA5B21006846FFF787FEAA5B694601A853
:1021E000FFF7B7FD2000FFF767FE0100AA7902A8FC
:1021F000FFF76AFDAA7902A94846FFF79FFDAD5B8C
:10220000290001A8FFF71CFE002817D1290001A80A
:10221000FFF703FE0400D2E7012040426FE70023EE
:10222000002B0DD03C4B9A684021585A824270D105
:10223000012800D863E7831E98464FE00123EFE7AB
:10224000354D4033EA5A210001A8FFF791FE2000E6
:10225000FFF732FE0100AA794846FFF725FD290065
:102260003C3101222000FFF748FDAB680133AB6031
:10227000D8E7294E4023F25A01A96846FFF769FDC5
:102280002800FFF719FE0100B2794846FFF71CFD50
:10229000B279494602A8FFF751FD013CA04513DA87
:1022A0001D4F4026BA5B51466846FFF71DFEA5B29A
:1022B000BA5B290001A8FFF717FE69462800FFF75F
:1022C00013FD0128E9D1D4E7134B9A79594602A8A6
:1022D000FFF7EAFC01235B429C46E0444346002BA7
:1022E00010DB43469BB29A461800FFF7E5FD834694
:1022F000094CA279010002A8FFF7E6FC4023E45A4A
:10230000013CCBE7044A4023D05AF8E60120404282
:10231000F5E601204042F2E6B81F002010B50400A7
:10232000034908223E3115F0B3FF200010BDC0461E
:10233000B81F0020002908D0064B59609A7001226E
:102340001A70044B00225A707047024B00221A7018
:10235000F7E7C04694200020014B18787047C0462C
:1023600094200020014B58787047C04694200020EC
:10237000F0B5C64600B584B00600C378CA2B00D0BD
:10238000A1E0002500240CE014000AE0032B07D193
:102390000234E4B2825C07231340534A537300E0D3
:1023A0001400337BA34200D88BE0B068621CD2B229
:1023B000035D022B5ED0E9D8002B0AD0012BE3D1BC
:1023C000494B00215973337F002B12D00634E4B2FD
:1023D000E7E7454B5968681CC0B24B1900241C70D4
:1023E000AB1CDBB201340C540335EDB2CC541400F9
:1023F000D7E7A11CC9B2835CE21CD2B2415C0902DE
:102400005B18211DC9B2825C12049B18621DD2B2F6
:10241000475C3F06DF190634E4B2815C324B1B7A1D
:102420001B071B0F0F220A409A42BAD100230293C6
:1024300002AA9380100010F001FD029BD8190290AF
:10244000039910F0DFFC2848037A1A07120F0132B3
:102450000F210A408B4313430372244B5B6B002B09
:102460009FD07A1C00200D3991424041C0B2390002
:10247000984796E70234E4B21B4B98465A686B1CA7
:10248000DBB202215155AF1CFFB20139D15402A871
:1024900010F0D4FC029B164A9446634402934246D1
:1024A0005268E91CC9B2D3551F0A281DC0B257543F
:1024B0001F0C691DC9B217541B0E0635EDB25354DB
:1024C0006FE7002D03D104B080BCB846F0BDCA232D
:1024D00002AA13705570044B5B68019303930021AB
:1024E0001000FFF721F9EEE794200020480D0020AE
:1024F00080C22AED30B58BB0104B5B7A002B01D136
:102500000BB030BD01AC052323700C4DAB7A2371A9
:1025100020000CF01FFC25232370EB7A2371200090
:102520000CF018FC2C2323700C23EB562371200095
:102530000CF010FC00236B72E2E7C04694200020F0
:1025400000487047480D002030B58FB0FFF7CAF83B
:10255000002853D12B4B5B7A002B2AD00CA810F00B
:102560006DFC0C9B284A944663440C9325494A68A9
:102570000120107053701C0A94701C0CD4701B0E38
:1025800013710B7A1024A3430B72DBB25371CA236D
:102590006C46282564192370C43B6C4601356419C8
:1025A00023700B92487200210AA8FFF7BDF80FB004
:1025B00030BD01AC0533237020000CF0D9FA23792B
:1025C000104DAB720023237120000CF0C3FB2523B8
:1025D000237020000CF0CCFA2379EB7201232371D5
:1025E00020000CF0B7FB2C23237020000CF0C0FA65
:1025F00023792B73054B1B6B9847AFE701204042B3
:10260000D5E7C0469420002080C22AED480D002066
:1026100010B5074B5B7B002B00D110BDFFF794FF7B
:102620000028FAD1024A537B013B5373F5E7C046B9
:1026300094200020014B18787047C0464C1F0020A2
:10264000014B58787047C0464C1F002070B5504C65
:102650006421206A14F0DCFC0023A3720122A27220
:102660004033E1680B70217DA37A5D1CA572E5689B
:10267000E954A37A591CA172A17DE568E954E38A63
:10268000A17A4D1CA5721B0AE5686B54A37A591CEC
:10269000A172E168C854010AA37A5D1CA572E568BD
:1026A000E954000CA37A591CA172E168C854A37ABA
:1026B000591CA1722421615CE068C1542623E15EAB
:1026C000A37A581CA072E068C1542621635EA17AE7
:1026D000481CA0721B12E06843542823E156A37AD9
:1026E000581CA072E068C154A37A591CA172292118
:1026F000615CE068C154A37A591CA172217EE06834
:10270000C154A3691B0AA17A481CA072E068435413
:10271000A37A591CA172A17EE068C154A37A591C06
:10272000A172E17EE068C154A37A591CA1722A21EA
:10273000615CE068C154A37A591CA1722B21615CD1
:10274000E068C154A37A591CA1722C21615CE06835
:10275000C154A37A591CA1722D21615CE068C15457
:10276000A37A591CA1722E21615CE068C154A37A3E
:10277000591CA1722F21615CE068C154A37A591CD5
:10278000A1723021615CE068C154627070BDC046C6
:102790004C1F002010B5164B1B78002B0CD0037873
:1027A0000A2B0AD00E2B07D1114820220021143009
:1027B00000F04FFFFFF74AFF10BD43780D2B0BD001
:1027C0000B4B1833043016C816C316C816C302685C
:1027D0001A60FFF73BFFEFE7054B1B7D002B02D193
:1027E000034B01221A75024AD38A0133D382E7E7E9
:1027F0004C1F002010B503780B2B00D010BD437880
:10280000002B05D0074B00221A75FFF71FFFF5E7D5
:10281000044C200014302022002100F01AFF012374
:102820002375F2E74C1F002010B5002809D00029BD
:1028300007D00E4B18600E4BD9605A7201221A70E5
:1028400004E00023094A1360094A1370084C00236E
:102850002382200014302022002100F0FAFE002301
:10286000637000223423E25410BDC046481F00208C
:102870004C1F0020F0B597B0C24B1B78002B32D014
:10288000C378002B02D1837C002B03D0BD4A138A6E
:1028900001331382437B002B25D0C378E02B22D158
:1028A000B84B00229A72826813787F2B14D89B0051
:1028B000B549CB589F46B34B012199720022D86885
:1028C00002709A7A501C98720620DC68A054D8686E
:1028D0009A7A541C9C728154AA4B9B7A002B02D08A
:1028E000A84B01225A7017B0F0BDA64A342301212B
:1028F000D154F1E7A54BDB6A01209847ECE70023B0
:1029000002A90B7053780B7108000CF023FAE3E76F
:10291000052302A90B7053785A1E93410B710800CE
:102920000CF018FAD8E75078431E9841C0B20DF069
:1029300027F8D1E702A8964B010031CB31C131CB4A
:1029400031C131CB31C111CB11C15378152BC3D853
:10295000904A12685268002ABED09B0002A95858BB
:102960009047B9E753785A1ED2B2012AB4D8013B36
:102970005A1E9341D8B2834B1872864B1B689B68D2
:102980009847A9E77F4BDA680121997208231370F1
:10299000073B01240FE0D2B29A429DD9651C8268A0
:1029A000125D7849CE688C7A671C8F72013232557D
:1029B0000133DBB2ECB2734A517A057B0A1CA9429F
:1029C000E9D92A1CE7E76F4B01229A720832D968CD
:1029D0000A70198A9A7A501C9872D86881541A8A97
:1029E000D868997A4C1C9C72120A425474E7654B61
:1029F00000221A8270E7042302AA1370634B9C6AB8
:102A000010000CF0B7FD069B01931A0002A9A04725
:102A100062E75E4B1B6B98475EE75078594B5875E1
:102A20005C4B1B68DB68984756E7564B01229A724D
:102A30004032D9680A70D98A9A7A501C9872D8683C
:102A40008154DA8AD868997A4C1C9C72120A4254D2
:102A500042E74C4B0022DA823EE7037B072B00D093
:102A60003AE7023B02A90B705378917809020B43B5
:102A700002A98B80D378117909020B435279120491
:102A8000134364225343049383689B795BB202AA85
:102A900013733E4B9C6A10000CF06CFD069B019377
:102AA0001A0002A9A04717E7432302AA2C215218B3
:102AB0001370002302AA0431521813700DA80CF0F1
:102AC00049F9304A34230121D15405E7352302AABC
:102AD000137010000CF04CF80399049A294B987A63
:102AE000441C9C727F24DD682C542A4800689C7A20
:102AF000651C9D72C578DE6835559C7A651C9D7293
:102B00008578DE6835559C7A651C9D724578DE684F
:102B100035559C7A651C9D720078DD682855987A39
:102B2000441C9C720C0EDD682C549C7A601C9872BC
:102B30000802000EDD6828559C7A601C9872080413
:102B4000000EDD682855987A441C9C72DC6821547C
:102B5000997A481C9872100EDC686054987A411C6F
:102B600099721102090EDC682154987A411C9972FD
:102B70001104090EDC682154D868997A4C1C9C72A7
:102B80004254A9E64C1F0020C4160210800D0020FC
:102B9000C4180210481F002030B583B01A4B5B7870
:102BA000002B06D1184A3423D35C002B25D103B067
:102BB00030BD10F0F2FA0500134B5C68FEF772FDB1
:102BC0002418A542EED9104C0023637010F0E5FAEA
:102BD0006060A37A002BE5D0E02269460A704B7052
:102BE000094BDA680192197A6846FEF79DFD0028C4
:102BF000D8D0054B01225A70D4E734230021D15498
:102C000010F00DFBD3E7C0464C1F00200048704772
:102C1000800D0020014B18787047C046A820002086
:102C2000014B58787047C046A8200020F0B5DE461A
:102C300057464E464546E0B58DB00500C378C92BD2
:102C400000D18DE10DB0F0BCBB46B246A946A0460E
:102C5000F0BDAB78012B00D14BE1D54B5A68711C0C
:102C6000C9B2931900201870B31CDBB20330505462
:102C70000336F6B20121D1543BE10233DBB299466F
:102C80000C5D012323409B46640863001B19DB0095
:102C9000C84882469A4402A8FFF740FB50460C30D1
:102CA000082202A915F0F4FA5B46002B0AD100D0E5
:102CB00052E163001B19DB00BE4AD318DB89002BED
:102CC00000D14BE1BA4B5868721CD2B20123835534
:102CD000B84B9B4661000B19DB005B449F89BC46E7
:102CE000B71CFFB2B84667468754A20192469A893C
:102CF000120A94463F2267463A40F71CFFB2BC4690
:102D000057463A434746C255DA899046321DD2B2F9
:102D1000924667464246C2559B7C9C460536F6B2B3
:102D2000012362461340524683540C19E4005C446C
:102D300067797F077B0F01934C460127D9E0AA787A
:102D4000012A00D1D5E0981CC0B20C5D04AA5470D1
:102D5000DC1CE4B20F5C5780181DC0B20C5D24026D
:102D60002743B84657805C1DE4B2085C8146107169
:102D7000981DC0B20C5DA4465471DC1DE4B2085C21
:102D8000907118000830C0B20F5D06971C0009341E
:102D9000E4B2085C0002381806901F000A37FFB240
:102DA0000C5D2404001906900B33DCB2CB5D1B06CE
:102DB000C0180690382367461F406246134200D071
:102DC00001274346152B02D84B46322B17D9022335
:102DD0001F43FFB204AB5B789B069B0F9A013A43FB
:102DE00092463A0713D0724B5A68731CDBB2022129
:102DF00091550236F6B25146D154002779E0FFF7DB
:102E000049F94B46424653438342E3D9DFE704AADC
:102E100001211170023909915900C918C900654B87
:102E20005B1883CA83C383CA83C3634B1A6849464A
:102E30004046FFF7DDF8D6E7AA78012A59D00233D9
:102E4000DBB20A5D03210A4051008918C9005948C4
:102E5000095C00290ED104210A43D2B254494868C2
:102E6000711CC9B2032484550236F6B242541C00C8
:102E700000273EE051008918C9004E4800240C5438
:102E8000ECE79A1CD2B2085D0333DBB299468C5C46
:102E900024022043A40B8004800C63001B19DB0078
:102EA000444AD3185B695A1C31D0002B19DB6300EC
:102EB0001B19DB003F4AD318022252425A613E4B93
:102EC0001B68DB68002B0CD062001219D100394A54
:102ED00052185088117941439279891A0220404250
:102EE000984763001C19E400324B1C1924794C44A8
:102EF000E4B223002A7B9A4237D9A9685C1CE4B269
:102F0000CA5C082AF5D892002C4882589746494452
:102F1000FFF7C4F862001219D200264B9A46924479
:102F20005346586102A8FFF7F9F950460C300822C1
:102F300002A915F0ADF9204B1B689B689A46002B3F
:102F4000CFD060000019C3001A48C018C3890279A5
:102F500041888089D047C4E74C46CAE74C46C8E759
:102F60000023019300270026C4E7002E00D169E664
:102F70000F4B5A680AAB0B925E70C9221A70002F71
:102F800011D0FA218900002000F040FB019F043796
:102F9000B8400B4B18600B4A0AAB03CB03C2044B7F
:102FA00001229A704EE600210AA8FEF7BDFB49E611
:102FB000A820002000200020A4200020F0180210EB
:102FC00030320020AC1F002010B582B001A810F0F4
:102FD0001DF90E4B9C7800229A7001A810F01BF985
:102FE000012C03D0022C0BD002B010BD084B196885
:102FF000084C200010F0C0F820000FF0F1FFF3E7BC
:1030000000210548FEF790FBEEE7C046A82000200F
:103010003032002060200020AC1F002010B50028B6
:1030200010D000290ED00C4B18600C4B5960DA7090
:1030300001221A700A4B00221A600A490A480FF04E
:10304000C5FF04E00023044A1360044A1370034BD5
:1030500000225A7010BDC046A4200020A8200020E5
:10306000303200206D3000106020002010B5034881
:1030700010F03AF8024B02229A7010BD6020002036
:10308000A820002000487047B80D0020014B187898
:103090007047C046B4200020014B58787047C046A6
:1030A000B4200020F0B5DE4657464E464546E0B512
:1030B0008DB00500C378C82B00D0B2E100260024F3
:1030C00083E00C0081E0042B7ED102AB07339B46EA
:1030D00000235A461370A31CDBB2795C032008401E
:1030E0008046E11CCAB29146FB5C9A46DF4B9C4687
:1030F000342141435B1852465A62201DC0B2AA686F
:103100004F46D75D3F02BA4452465A62671DFAB233
:103110009146AA68105C000450445862A71DFAB298
:103120009246AA684F46D25D1206914648445862BC
:10313000CF4A914648445862E01DC0B2AA6857463B
:10314000D25D0F2717402822914699444A461770AE
:1031500027000837FFB2AA68125C9146DA622000A5
:103160000930C0B2AA68D75D3F024A463A43914649
:10317000DA6227000A37FFB2AA68105C00044A46E8
:103180001043D86264225043D8620B34E4B2AA6878
:10319000D05730331870B74B5B68771CFFB20420F0
:1031A00098552831614404315A4640460CF06AF97A
:1031B000002800D1F2E0AF4B5B680236F6B202AAFB
:1031C00007321278DA5500E00C002B7BA34200D8BE
:1031D00025E1AF68611CC9B23B5D032B00D1C2E0A1
:1031E00000D970E7002B2BD0022B00D069E7A31C7D
:1031F000DBB27A5C90469D48342241464A431154E2
:10320000E11CC9B2AF68FB5C82185360201DC0B2DC
:10321000AF68795C09025B185360611DC9B2AF6881
:10322000385C00041B1853600634E4B2A868415CA3
:103230000906994689444B465360002347461CE0E3
:103240008C4B5A68701CC0B2931900241C70B31CBC
:10325000DBB2023414540336F6B20120D0540C0011
:10326000B3E7601CAA68145D342179437F4A521881
:10327000D218147201335BB2C4B20F2BF1DDB84621
:10328000671CFFB2AB681A5D784B9B4634234146FE
:1032900059438A46594651448A61A01CC0B2AB6862
:1032A000DF5D3F02D2198A61E71CFFB2AB681B5C8D
:1032B0001B049B188B61201DC0B2AA68D25D120648
:1032C0009B1800938B61631DDBB2AA68175CCF610A
:1032D000A01DC0B2AA68D35C1B02FB18CB61E21D23
:1032E000D2B2AF68385C00041B18CB610834E4B27A
:1032F000A868825C12069A180192CA6104AF202263
:103300000021380014F0BEFF01233B7002227A70C6
:10331000BB7059465046435C9B079B0FFB70494668
:103320000591514608310B005B440693009B0893BE
:10333000019A099238000CF009F8002800D0012009
:103340004C4B5F68721CD2B20223BB558300342100
:10335000404641434548085C8007800F0236F6B27C
:103360001843B85431E70234E4B27B5C03271F40B2
:10337000404B5B68721CD2B2904603229A553800CB
:103380000CF04EF8002802D004231F43FFB2394B43
:103390005B680236F6B242469F5416E704A8002343
:1033A000049383800FF04AFD342243465A432F4B47
:1033B0009B185B6A049A9B1A9846002B06DC02ABAA
:1033C000DA1DDB7910210B431370F4E65B014246F2
:1033D0009B1A9B004344DB009946274B9A4649467B
:1033E00018000FF0C9FE50460FF0FAFD4946234879
:1033F00015F0B4F81F4B5A68B11CC9B25B461B7874
:10340000D355F31CDBB2404650540012311DC9B2F3
:10341000D05443461B140536F6B25354D5E6002E5D
:1034200006D10DB0F0BCBB46B246A946A046F0BDE1
:10343000C82302AA137256720E4B5B680093059361
:10344000002104A8FEF770F9084C21788907890F3C
:103450000B4815F083F861680A4815F07FF8217A67
:10346000094815F07BF8012417E0C046F825002034
:10347000803DD512B4200020FC3100201419021028
:1034800030190210441902105C190210134B1B1959
:10349000197A134815F062F801340F2CF6DD0A2072
:1034A00014F0F8FF0D4CA1690E4815F057F8E169CA
:1034B0000D4815F053F8616A0C4815F04FF82823B1
:1034C000E15C0B4815F04AF8E16A0A4815F046F845
:1034D0003023E156084815F041F8A2E7F82500200E
:1034E000440F02107019021084190210981902106A
:1034F000AC190210C0190210D419021010B582B014
:1035000001A80FF083FE114B9C7800229A7001A84D
:103510000FF081FE012C03D0022C12D002B010BD9E
:103520000220FEF701FA0A4A2823D35CFA21890017
:103530009940084C20000FF01FFE20000FF050FDB6
:10354000ECE70020FEF7F0F9E8E7C046B4200020E1
:10355000F82500201432002010B5002910D00A4BA5
:103560005960DA7001221A70084909480FF02EFDDF
:10357000084909480FF02AFD034B00225A7010BD7C
:10358000014B00221A70F7E7B4200020B535001077
:10359000FC3100209D3500101432002010B5034886
:1035A0000FF0A2FD024B02229A7010BD14320020CF
:1035B000B420002010B503480FF096FD024B012205
:1035C0009A7010BDFC310020B420002000487047E4
:1035D000F00D002010B5064B06481A685043064A05
:1035E000944660441860054913F012FD080010BDB0
:1035F000280E00206D4EC64139300000FFFFFF7FCE
:10360000014B18607047C046280E002070B50500B9
:103610000C00FFF7DFFF611B013113F0D1FC4819EB
:1036200070BD04E00A7802701A0001310130531EA7
:103630009BB2002AF6D17047531EC01804E00A78E6
:1036400002701A0001310138531E9BB2002AF6D1D4
:10365000704702E001701A000130531E9BB2002A2D
:10366000F8D1704770B5061E18D0002501235B42C3
:103670000CE05C08012003405B42094803406340C2
:10368000013292B2072AF4D90135ADB28D4203D28C
:10369000725D53400022F5E7D84370BD0020FCE77F
:1036A0002083B8ED012040427047000070B500292A
:1036B00014D000260CE04508012318404042084B76
:1036C000184068400134A4B2072CF4D90136B6B2D0
:1036D000964204D28B5D58400024F5E7002070BD6F
:1036E0002083B8EDC0437047092801D801207047F6
:1036F0000020FCE700B583B0030008000022009220
:10370000092B2DD89B00184AD3589F4600F074FB14
:103710000190019803B000BD01F048F90190F8E76D
:1037200002F0A4F80190F4E703F058F80190F0E7F4
:1037300004F0E8F90190ECE704F0C8FF0190E8E735
:1037400006F046FB0190E4E705F088FD0190E0E714
:1037500007F07AFE0190DCE707F0C0F80190D8E7A7
:10376000009B0193D5E7C046EC19021010B5030089
:103770000800092B05D89B00104AD3589F4600F03B
:1037800005FC10BD01F0F0F9FBE702F07DF9F8E768
:1037900003F0D0F8F5E704F05FFAF2E705F03EF841
:1037A000EFE706F0BDFBECE705F002FEE9E707F006
:1037B00005FFE6E707F03CF9E3E7C046141A0210FC
:1037C00010B503000800092B05D89B00104AD358F8
:1037D0009F4600F0F9FB10BD01F0E4F9FBE702F0B1
:1037E00071F9F8E703F0C4F8F5E704F053FAF2E7EB
:1037F00005F032F8EFE706F0B1FBECE705F0F6FD77
:10380000E9E707F0F9FEE6E707F030F9E3E7C0463D
:103810003C1A021010B5030008001100092B21D832
:103820009B00114AD3589F4600F026FC10BD01F0C2
:103830006DFAFBE702F0CCF9F8E703F0F9F8F5E7E9
:1038400004F088FAF2E705F071F8EFE706F0E6FB1E
:10385000ECE705F02BFEE9E707F082FFE6E707F06B
:103860005DF9E3E70020E1E7641A021010B50300F8
:103870000800092B05D89B00104AD3589F4600F03A
:10388000CFFF10BD01F090FAFBE702F0D5F9F8E7A1
:1038900003F08CFCF5E704F01BFEF2E705F020FCDA
:1038A000EFE706F05DFFECE706F0D0F9E9E707F097
:1038B0008FFFE6E707F0EEFCE3E7C0468C1A021044
:1038C00010B503000800092B21D89B00114AD358DA
:1038D0009F4600F023FC10BD01F0A2FAFBE702F0C6
:1038E000F9F9F8E703F0DEF8F5E704F06DFAF2E72E
:1038F00005F05CF8EFE706F0C9FBECE705F016FE13
:10390000E9E707F0A1FFE6E707F042F9E3E7002067
:10391000E1E7C046B41A021010B504000800110017
:103920001A00092C06D8A400154B1B599F46029B70
:1039300000F018FC10BD029B01F0B8FAFAE7029BF8
:1039400002F002FAF6E7029B03F0D0F8F2E7029BDE
:1039500004F05EFAEEE7029B05F04CF8EAE7029B02
:1039600006F0B8FBE6E7029B05F004FEE2E7029BE7
:1039700007F0B8FFDEE7029B07F02EF9DAE7C04652
:10398000DC1A021010B5030008001100092B21D821
:103990009B00114AD3589F4600F01CFC10BD01F05B
:1039A000B5FAFBE702F000FAF8E703F0D7F8F5E71D
:1039B00004F066FAF2E705F055F8EFE706F0BAFB17
:1039C000ECE705F00FFEE9E707F0BCFFE6E707F0DC
:1039D0003BF9E3E70020E1E7041B021010B5040007
:1039E000080011001A00092C21D8A400114B1B5902
:1039F0009F4600F06BFC10BD01F0D8FAFBE702F027
:103A00003DFAF8E703F026F9F5E704F0B5FAF2E736
:103A100005F0A4F8EFE706F0E1FBECE705F05EFE49
:103A2000E9E707F0DFFFE6E707F08AF9E3E70020C0
:103A3000E1E7C0462C1B021010B582B0040008005C
:103A400011001A00092C40D8A400214B1B599F4695
:103A5000059B0093049B00F0CBFC02B010BD059BBE
:103A60000093049B01F012FBF7E7059B0093049B76
:103A700002F094FAF1E7059B0093049B03F07CF9B4
:103A8000EBE7059B0093049B04F008FBE5E7059B2F
:103A90000093049B05F0F4F8DFE7059B0093049B7B
:103AA00006F01EFCD9E7059B0093049B05F0A8FED9
:103AB000D3E7059B0093049B08F00AF8CDE7059B2C
:103AC0000093049B07F0CEF9C7E70020C5E7C04686
:103AD000541B021010B503000800092B21D89B00CD
:103AE000114AD3589F4600F04BFD10BD01F01CFC5D
:103AF000FBE702F027FBF8E703F006FAF5E704F02E
:103B000095FBF2E705F084F9EFE706F0B1FCECE78E
:103B100005F046FFE9E708F029F9E6E707F06EFA55
:103B2000E3E70020E1E7C0467C1B021010B503006C
:103B30000800092B21D89B00114AD3589F4600F05A
:103B4000AEFE10BD01F018FCFBE702F01BFBF8E72E
:103B500003F06BFBF5E704F0FAFCF2E705F0FFFA7F
:103B6000EFE706F03CFEECE706F0AFF8E9E708F017
:103B70002BF9E6E707F0CDFBE3E70020E1E7C046DD
:103B8000A41B021010B503000800092B21D89B00CC
:103B9000114AD3589F4600F013FD10BD01F0EFFB12
:103BA000FBE702F0F2FAF8E703F0CEF9F5E704F0EC
:103BB0005DFBF2E705F052F9EFE706F079FCECE780
:103BC00005F012FFE9E708F002F9E6E707F036FA38
:103BD000E3E70020E1E7C046CC1B021010B503006C
:103BE0000800092B21D89B00114AD3589F4600F0AA
:103BF000E9FC10BD01F0C5FBFBE702F0C9FAF8E7EC
:103C000003F0A6F9F5E704F035FBF2E705F02AF931
:103C1000EFE706F051FCECE705F0EAFEE9E708F013
:103C2000D9F8E6E707F00EFAE3E70020E1E7C0463F
:103C3000F41B021010B5030008001100092B21D855
:103C40009B00114AD3589F4600F0DEFC10BD01F0E6
:103C50009BFBFBE702F09FFAF8E703F09BF9F5E71F
:103C600004F02AFBF2E705F025F9EFE706F046FC41
:103C7000ECE705F0DFFEE9E708F0B0F8E6E707F06B
:103C800003FAE3E70020E1E71C1C021010B5040072
:103C9000080011001A00092C2BD8A400164B1B5940
:103CA0009F46029B00F0B2FC10BD029B01F08CFB12
:103CB000FAE7029B02F070FAF6E7029B03F06CF958
:103CC000F2E7029B04F0FAFAEEE7029B05F0F4F843
:103CD000EAE7029B06F014FCE6E7029B05F0ACFE67
:103CE000E2E7029B08F09AF8DEE7029B07F0CEF9C4
:103CF000DAE70920D8E7C046441C021010B50400DA
:103D0000080011001A00092C21D8A400114B1B59DE
:103D10009F4600F0EFFD10BD01F00CFCFBE702F048
:103D2000EBFAF8E703F0ACFAF5E704F03BFCF2E756
:103D300005F040FAEFE706F07DFDECE705F0F0FF57
:103D4000E9E708F021F9E6E707F00EFBE3E7C8B280
:103D5000E1E7C0466C1C02100048704701000102F8
:103D600010B50400064B1B6A9847002805D0054B88
:103D70009C466444044B9C4200D810BD0020FCE7E4
:103D8000F4310210403576C9405DC60070B584B08C
:103D900005000C00154B1E56154903F055FE010099
:103DA000072D0FD0134B5D6A01230393E4B20294F5
:103DB0000023019308330093073B32000120A847FA
:103DC00004B070BD0B4B5D6A7201921B9200921998
:103DD000D20001230393E4B202940023019305333C
:103DE000009300230020A847EAE7C046D81D021030
:103DF000B81D0210F431021000B587B000230493FF
:103E00000378372B11D89B00524AD3589F46C3786A
:103E1000002B0AD00223049307E08378002B04D000
:103E20000223049301E002230493049B05931800EA
:103E300007B000BD0122825601AB1A7007225A70EA
:103E40008378002B00D002236A4693711023D3712C
:103E5000414B1B689022D2009A180292039301A84A
:103E600003F0CDFD0490E0E740230493DDE7202339
:103E70000493DAE78378002B05D10123C356374A30
:103E8000D35C0493D1E70123C356354AD35C049332
:103E9000CBE7344B0493C8E7FA239B000493C4E7B1
:103EA000FA23DB000493C0E72F4B0493BDE72F4BAD
:103EB0000493BAE7FA2189002D48FFF7A7FBFA23FC
:103EC000DB009C4660440490AFE72A4B0493ACE7C8
:103ED00002230493A9E7204B1B689022D20094464A
:103EE00063440493A1E71C4B1B68234A9446634434
:103EF00004939AE71023049397E7174B1B680493E6
:103F000093E70123049390E78323DB0504938CE775
:103F10001A4B049389E71A4B049386E704AB1122EA
:103F20001A70103A5A7080E7032304937DE7144B0C
:103F300004937AE70323049377E70123C356114AD6
:103F4000D35C049371E7407840B20F4903F07CFDE5
:103F500004906AE7941C0210B0300020601E02102A
:103F6000681E0210B80B00008813000070170000D4
:103F700018FCFFFF00EA06378C0400009A990940FC
:103F800040F70937D81D0210B81D021030B583B0B4
:103F900003000B4A15680B4A11680078420012189A
:103FA00092008A18547A5A78996860000019C00003
:103FB00028181C690094DB6803F0D2FA03B030BD06
:103FC00088300020B030002030B587B064236A46C6
:103FD000138000239370019302930393049313754A
:103FE000037A012B27D0022B34D0002B01D007B04D
:103FF00030BD0368002BFAD04268002AF7D01A4976
:104000000B601A4C2260182269461800FFF709FB62
:104010002168174B0A0031CB31C231CB31C2154B6D
:104020000322CA520C3BC818124B9C466144023A08
:1040300003F087FADBE70D4B196800234B600B6137
:104040009023DB00C8180B4B9C466144012203F00F
:1040500078FACCE7054B1B68064A9A5A9021C900AA
:10406000585A02435A52C2E788300020B03000202C
:10407000A01D02108C04000010B50A2949D889003F
:10408000254B5B589F460068FFF76AFE42E0837845
:10409000002B09D1007840B20722002103F0D7F9A4
:1040A000431E9841C0B235E0007840B20722022199
:1040B00003F0CDF9431E9841C0B22BE0007840B226
:1040C0000522002103F0C3F9431E9841C0B221E04C
:1040D0004378002B09D1007840B20722002103F079
:1040E000B6F9431E9841C0B214E0007840B20722EE
:1040F000022103F0ACF9431E9841C0B20AE00078F7
:1041000040B20722002103F0A2F9431E9841C0B239
:1041100000E0002010BDC046741D021010B5030061
:104120000279002A03D0012A0DD0002010BD0B4ACD
:1041300010689022D200944660441968012203F06E
:1041400000FA0120F2E7054A1068054A94466044E7
:104150001968012203F0F5F90120E7E7B0300020EB
:104160008C040000F0B583B00E0017001C00031C87
:10417000072800DD072358B26370134903F064FC7D
:10418000A0700123E356072B17D099000E4A8958D7
:104190000E4AD05C03F012FB05000D4BDB6D984717
:1041A000030022000C320192083400943A003100DE
:1041B000280003F015FB03B0F0BD044AD05C03F007
:1041C00007FB0500E9E7C046B81D0210D81D021024
:1041D000F4310210F0B5CE46474680B58DB00400EC
:1041E0000B910127C7574668324B5B689847051EFD
:1041F0005ED1A37C002B0DD12F4B1A6821784B0088
:104200005818800080585B189B00D3185E68002EF9
:1042100000D10600294BDB579946264BDB6830005E
:104220009847072F26D0234B9D69A178637C09937B
:1042300001230893002307930693059304930393A4
:104240002289029208220192009301334A460120FA
:10425000A8470125174B5B6D194AD15D0D31C9B2D5
:10426000280098470B9B1F7001200DB0C0BCB946B9
:10427000B046F0BD0F4B9B6998464B465A01D21A87
:1042800092004A44D200637C099300230893079369
:104290000693012105910493039323890293052337
:1042A0000193084B0093002307490020C047D1E742
:1042B0000020DAE7F4310210B0300020D81D0210DF
:1042C000601E02108545010050C30000F0B5DE46B7
:1042D00057464E464546E0B58BB004008B469046A7
:1042E0000123C3563C4AD7563C4B19683C4D0378D2
:1042F0005A00D21892002B689C466244527A5300AE
:104300009B18DB00CB18022159560220205603F0DF
:1043100095FB060001202056324903F095FB8246AA
:10432000A2686168300003F099FA81462E4BDB6881
:10433000296822785500AD18AD00685898470123C8
:10434000E356072B2BD0284BDD69FA231B0108937A
:1043500000230793069305930122049203930833E5
:104360000293019200975346002249460120A84734
:104370000125A18901202056FFF708FD434618605A
:10438000194B5B6D217B280098475B461E7001200E
:104390000BB0F0BCBB46B246A946A046F0BD124BDE
:1043A000DD697B01DB1B9B00DB19DB00FA221201BC
:1043B000089200220792069205920121049103922D
:1043C00004310291019200935346084A4946002065
:1043D000A8470025CDE7C046D81D02108830002030
:1043E000B0300020B81D0210F4310210A8610000A6
:1043F000F0B5D6464F464646C0B58EB006008A4652
:1044000091469846062200210CA813F03BFF2E236C
:104410006B4400221A80002507272BE00024072781
:1044200010E0564A11686200121992005258002A90
:1044300006D00120A0402E2169440A8802430A8048
:104440000134E4B20F2C15D8062BEAD02E226A4490
:1044500012882241D207F3D5484A11686200121926
:1044600092005258002AEBD101329743E8E7062721
:1044700000E00627337AAB421AD9736858190CA9A1
:1044800003F01CF9002813D02D18EDB20CAB9A885C
:104490002E2169440A80DB78002B01D1002AE6D066
:1044A0005A1ED2B2042AE4D9062BB7D90627E1E76F
:1044B00002236A46282152181370737A6A46023121
:1044C000521813700AA8FFF797FC0200099001A880
:1044D0000771B37A43710CAB0121595681710221E6
:1044E0005956C171197801720B21715641720C2114
:1044F000715681720D217156C172102101731E31E6
:10450000694401610275072242751C49096881618D
:104510000277002242773268019232226A443121C6
:10452000694403F0EAF80400072814D00CAB012218
:104530009A5651460A7002229A5649460A701B78CA
:1045400042461370169B1D7020000EB0E0BCBA46A8
:10455000B146A846F0BD094E30689023DB009C466A
:1045600060440C220021FFF774F832682E236B445C
:1045700019889023DB00D152D8E7C046B030002024
:1045800070B504004068FFF7EBFB002816D0072544
:10459000002020560722002102F059FF002801D1F7
:1045A00002239D43012020560722002102F04FFFE5
:1045B000002801D104239D43280070BD0625E7E7AC
:1045C0000020704710B504004068FFF7C9FB0028C1
:1045D0000FD003230B4A106821784A00521892002A
:1045E0001258002A01D102329343032B03D058B250
:1045F00010BD0223EEE764684A0051188900401894
:104600004460F4E7B030002002207047F0B5C646A1
:1046100000B598B004000391170098460023572274
:1046200002A98C466244137056226244137013939D
:104630000C22002114A813F025FE0A2302AA944696
:10464000634403221A80374B18689023DB009C4692
:104650006044023A002102F05DFF002807D1314B8F
:1046600019689022D2008B5A032003438B52637A3D
:1046700005AD2B70237A6B702A4B1B689022D200F9
:104680009A1806920793284B1B68089310232B82D5
:10469000063B02AA944663440A930BAE23680B932D
:1046A00063680C93A37A3372012373720EA82100FE
:1046B0000C310CC90CC0237D3375E18A08202056CB
:1046C000FFF764FB119012950197562302AA9446B6
:1046D000634400935723634413AA4146300003F018
:1046E00041F90400031E06D00C2812D0200018B097
:1046F00080BCB846F0BD573302AA9446634419788B
:1047000001390020FEF782FF13AB1B5C039A137084
:10471000ECE7044B19689022D2008B5A0320034324
:104720008B52E3E7B030002088300020F8B5040059
:104730000579012D4ED90F2D4ED80368187A000146
:1047400040B200110722002102F081FE00283DD076
:10475000002623680820185600110722002102F0C5
:1047600076FE002800D1012621680B7A1A0152B288
:1047700012115BB21B119A4200DD01260868FFF797
:10478000EFFA002824D00023002E01D0002B25D1E1
:10479000002E25D1002B25D1134F6E0070198000FB
:1047A0003B689C46604421680C22FEF73AFF3B6858
:1047B0007619B6009E19002272720121A94090203C
:1047C000C0001A5A0A431A52002006E00126C0E728
:1047D0000123D9E7062000E00320F8BD0620FCE70E
:1047E0000520FAE70420F8E7B030002070B504781F
:1047F000012C11D9094B1D68600000198000281890
:104800000C22002113F03EFD9023DB00E81810225B
:10481000210002F06AFE70BD0020FCE7B0300020ED
:1048200070B586B0060003AB50221A72037A102BC3
:1048300033D14368DD7B002D2FD102241AE072684A
:10484000535D03935219517809020B4303939278F5
:1048500012041343039364225343039300230493EA
:1048600011E06B461C706846FFF7C0FF0335EDB2E0
:104870000134E4B20F2C10D8062CE0D903AA00238F
:10488000039313720493039B002BEAD001A803AB9C
:1048900001930471FFF74AFFE8E706B070BD00B569
:1048A00085B0030002681168002908D1037901A8C6
:1048B0000370FFF79BFF002812D003200DE002A831
:1048C00002921B790371FFF731FF05280AD00BD83C
:1048D00000280BD004280BD1023840B205B000BD2F
:1048E0000020FAE70120F8E70020F6E70320F4E7CC
:1048F0000020F2E7002805D1C900054B5918885659
:10490000C0B27047C900034B59188856F8E7C04633
:10491000E01D0210201E021070B504000D4B1B6A32
:104920009847051E12D00C4BE0180C4B98420CD83F
:104930000B4912F06DFB00290AD10A4B9C466444D6
:10494000094B9C4202D9002500E00025280070BDDB
:104950000025FBE7F4310210608FF7C840164000D5
:10496000C0270900002873C9C042C00070B584B0D8
:104970000C000B4B1E560B4903F066F801000A4B66
:104980005D6A01230393E4B2029400230193083388
:104990000093073B32000120A84704B070BDC04619
:1049A000BC1F0210501F0210F431021000B587B076
:1049B000002304930378372B14D89B005B4AD35809
:1049C0009F46C378002B02D1083304930AE00223E8
:1049D000049307E08378002B04D00223049301E0C2
:1049E00002230493049B0593180007B000BD012225
:1049F000825601AB1A700D225A708378002B00D0BA
:104A000002236A4693714823D371494B1B68902255
:104A1000D2009A180292039301A802F0F0FF0490CA
:104A2000E0E740230493DDE720230493DAE783786B
:104A3000002B05D10123C3563E4AD35C0493D1E732
:104A40000123C3563C4AD35C0493CBE73B4B04930E
:104A5000C8E7FA239B000493C4E7FA23DB0004931E
:104A6000C0E7374B0493BDE7364B0493BAE7FA210E
:104A700089003548FEF7CAFDFA23DB009C466044F6
:104A80000490AFE7314B0493ACE708230493A9E704
:104A9000274B1B689022D200944663440493A1E7FD
:104AA000234B1B682A4A9446634404939AE748239D
:104AB000049397E71E4B1B68049393E70123049329
:104AC00090E7244B04938DE7234B04938AE7007906
:104AD000224A1E4900F0BFFD049083E704AB172271
:104AE0001A70133A5A70013A9A707BE708230493BC
:104AF00078E70823049375E70079184A134900F012
:104B0000AAFD04906EE7082304936BE7082304933F
:104B100068E70123C356124AD35C049362E74078E6
:104B200040B2104902F090FF04905BE7701E021043
:104B3000B4300020CC1F0210DC1F0210B80B0000A4
:104B4000881300007017000018FCFFFFA0700837E2
:104B50008C0400000000F0419A990940C027090028
:104B6000BC1F0210501F021030B583B003000B4A67
:104B700015680B4A116800784200121892008A18D2
:104B8000547A5A78996860000019C00028181C6986
:104B90000094DB6802F0E4FC03B030BD8C300020F0
:104BA000B430002010B586B001236A46138000237C
:104BB000937001930293039304931375047A002C6A
:104BC00011D0013CE4B2012C00D986E0444B1968B5
:104BD0009023DB00C818434B9C466144062202F038
:104BE000B0FC002377E00368002B76D04268002AEF
:104BF00073D03D490B603A490A6000229C215A5407
:104C000001315A54183269461800FEF70AFD11E0C6
:104C100036496143324B1A68354B9C466144630008
:104C200018198000815011185020087200224A7211
:104C30000134E4B23F2CEBD94023472B14D81A009F
:104C4000403A2C485043264A11682B4A9446604407
:104C50005A00D418A4006050081966240472002178
:104C600041720133DBB2E8E71D4C216801235B424E
:104C70001C4A8B52214A8B5202328B52204A8B5251
:104C8000204BFF22CA52204B0022CA52163BC818A2
:104C9000144B9C466144063202F053FC124B1868D8
:104CA000903021689023DB009C466144062202F08C
:104CB00048FC12E00C4A1068094A116890229200E0
:104CC0009A185200545A1A0048325200115A214080
:104CD00011520133DBB2052BECD906B010BDC04632
:104CE000B43000208C0400008C300020400D030004
:104CF00000D88C36006A1800608697368E04000053
:104D000092040000940400009604000010B50729E6
:104D10002FD012D800291ED00539C9B201293FD899
:104D20008378002B1BD1007840B20D22002102F0C5
:104D30008EFB431E9841C0B235E00939C9B2012942
:104D400030D8007840B20E22002102F080FB431ED2
:104D50009841C0B227E00068FFF7DEFD23E000784D
:104D600040B20D22022102F072FB431E9841C0B2F4
:104D700019E08378002B09D1007840B20D22082178
:104D800002F065FB431E9841C0B20CE0007840B2CF
:104D90000D22022102F05BFB431E9841C0B202E0EB
:104DA000002000E0002010BDF0B5037A102B32D1B6
:104DB0004368DB7B012B2ED1002100230FE0164C32
:104DC00025689024A40014196400A65B48325200A0
:104DD000545B344054530133DBB20231C9B2042B6B
:104DE00019D80E4A16681A004468645C9025AD0014
:104DF0005D196D00AC5347687F187F783F023C43D4
:104E0000AC53042BDBD1FF252C404235FF355D1917
:104E10006D00AC53D3E7F0BD8C300020B4300020DF
:104E200070B503000479002C03D0012C28D0002099
:104E300070BD194D28689022D200944660441968CC
:104E4000062202F07EFB2D68144AA95AFF230B406C
:104E5000AB52134B0022EA520EE0124B196890231A
:104E60009B00E3185B00585B230048335B005A5AF1
:104E700002405A520134E4B2052CEED90120D7E7A2
:104E8000054A1068084A944660441968062202F0F0
:104E900058FB0120CCE7C046B43000209404000049
:104EA000960400008C3000208C040000F0B583B024
:104EB0000E0017001C00031C0D2800DD0D2358B246
:104EC00063700F4D290002F0BFFDA0700123E3566F
:104ED0009A0051590B4AD05C02F070FC05000A4B55
:104EE000DB6D9847030022000C32019208340094D5
:104EF0003A003100280002F073FC03B0F0BDC04658
:104F0000501F0210BC1F0210F4310210F0B5CE4643
:104F100000B58CB004000B910127C75746681E4BA3
:104F20005B689847002834D1A37C002B07D12378F5
:104F300007263340194E5E43194B9C466644194B75
:104F4000DB579946144D3000EB689847A178637C95
:104F50000993012308930023079306930593049371
:104F600003932289029208220192009301334A4658
:104F70000120AC69A0476B6D0B4AD15D0D31C9B200
:104F8000012098470B9B1F7001200CB080BCB946D4
:104F9000F0BD0020F9E7C046F4310210C027090037
:104FA000A0700837BC1F0210CC1F0210F0B5DE46FF
:104FB00057464E464546E0B58DB004008A46170078
:104FC0000123C3562C4AD3569B462C4B19682C4DB3
:104FD00003785A00D21892002B689C466244527A99
:104FE00053009B18DB00CB18022159560220205693
:104FF00002F024FD060001202056224902F024FD83
:105000008146A26861680B96300002F027FC80465A
:105010001D4E2968227853009B189B005858F3684E
:105020009847FA231B0108930023079306930593DF
:105030000122049203930833029301925B4600938A
:105040004B46002241460120F569A847736D217B3C
:1050500001209847A18901202056FFF787FC38607E
:1050600053460B9A1A7001200DB0F0BCBB46B246F5
:10507000A946A046F0BDC046BC1F02108C300020DF
:10508000B4300020501F0210F4310210F0B5DE469B
:1050900057464E464546E0B593B005008846019216
:1050A0009B460622002110A813F0ECF80C220021E8
:1050B0000DA813F0E7F8954B19689023DB009C4688
:1050C000614406220DA802F03CFA00240AE00DAA71
:1050D000073B138053809380D38010AB9988FF23C4
:1050E0000B4013812B7AA34269D96B68181910A958
:1050F00002F0E4FA002862D02418E4B210ABDB78A6
:10510000062BE4D0072B07D0052B54D010AA91888A
:105110005B000DAA9952E5E70DAB00221A805A8078
:105120009A80DA8010AA9188FF220A401A81D9E772
:105130000DA948464600775A7548074377520E89AD
:1051400032430A8148460130C2B291460133DBB294
:10515000072BC7D810AA9288FF21114001229A403C
:105160000A420CD0D907E3D40DA948464600705A2C
:10517000FF27074377520E8932430A81E6E7D907B2
:105180000AD40DA948464600775AFF208743775234
:105190000E8996430E81D9E70DA948464600775AF5
:1051A000FF20384070520E8996430E8148460130E8
:1051B000C2B29146CAE7002300229146C8E710AB6D
:1051C0005B785BB2052B5ADD07239946022302AABE
:1051D0002421521813706B7A02AA023152181370EC
:1051E0000BA8FFF7E3FB0A9002AB4A461A71AB7AB1
:1051F00002AA537110AB01229A5602A98A710222A7
:105200009A56CA711A780A720B22AA564A720C224E
:10521000AA568A720D22AA56CA7248220A730DAA89
:10522000069208750D224A75384A12680092089253
:105230000E220A7700224A772A6802923A228C4686
:10524000624439216046614402F057FA050007289C
:1052500022D010AB01229A5641460A7002229A5679
:1052600001990A701B785A4613701C9B1C70280009
:1052700013B0F0BCBB46B246A946A046F0BD04221E
:1052800000210DA802F046F9012802D9072399460A
:105290009CE70623994699E71C4B9946186890238A
:1052A000DB009C46604406220DA902F04AF9194B26
:1052B0001B684A4612689021C900515A8C469020BA
:1052C000195A6646314019521349515A8C460230D8
:1052D000195A6646314019521049515A8C460230CB
:1052E000195A6646314019520D49515A8C460230BE
:1052F000195A6646314019529121C900505A9821D5
:1053000058520849515A9A229952A2E7B4300020C3
:1053100000FFFFFF8C3000208204000084040000A6
:10532000860400008A04000070B504004068FFF79E
:10533000F3FA00281ED00725002020560D22082150
:1053400002F085F8002801D102239D430023E35693
:10535000072B01D00D2B01DD02239D430120205698
:105360000522002102F073F8002801D104239D4397
:10537000280070BD0625DFE701204042704700206D
:10538000704701204042704710B5002911D10D4BE4
:1053900019689D228B5C01338B540A4B1A689D233C
:1053A000D05C092111F034FEC9B2002908D10620D1
:1053B00010BD044B19689D228B5C013B8B54ECE7BC
:1053C0000220F5E78C300020F0B5CE46474680B588
:1053D000A5B006000C009146984600238F226A442F
:1053E00013708E226A44137011934422002112A874
:1053F00012F048FF4D4B186890300422002102F053
:1054000089F800285BD00823F356052B0DDD474BA8
:105410001B6898229A5AFF21114206D1444A11680A
:105420009122D200895A98229952737A03AD2B7037
:10543000337A6B703D4B1B681A00903204923C4AE1
:1054400012680592069348232B820023089309AF24
:105450003368099373680A93B37A3B7201237B72B2
:105460000CA831000C310CC90CC0337D3B75F18A9E
:1054700008203056FFF77AFA0F9010954B460193AB
:105480008E236B4400938F236B4411AA414638004E
:1054900002F068FA051E42D1737A002B20D108234E
:1054A000F356022B29D1214B1968080090309C310A
:1054B000220000F06FF803282AD105002FE01B4DD1
:1054C000286890301A4B19689023DB009C46614491
:1054D000042202F036F82A689C230021D15492E776
:1054E0008F236B44197801390020FEF78FF811AB38
:1054F0001B5C23700CE00130C0B20C4B1A6898237F
:10550000D25A673313400341DB07F4D54030207093
:10551000064B186890302178482201F0E6FF2800F9
:1055200025B0C0BCB946B046F0BDC0468C300020A6
:10553000B43000200B004900C9184900064B591827
:105540008B56002B01DBD8B27047002801D1002315
:10555000F9E70223F7E7C046901F021010B50029B3
:1055600014D0002A14D00023137001E00133DBB201
:10557000072B09D804001C41E407F7D514780B5514
:10558000147801341470F1E7002010BD0320FCE70B
:105590000320FAE7F0B585B006000D0017000023E0
:1055A000029303936A46D37100283BD000293BD075
:1055B000002F3BD00C7815E05B00985B000A18E0E8
:1055C00001390020FEF722F802AB1B5CE2009B18B9
:1055D0003B7019E06B4607331B78002B1AD12A78F1
:1055E000A24217D06308E207E6D45B009B5BFF2072
:1055F00018406B46DA1D02A9FFF7B0FF03280CD054
:105600006B46D9790029DBD10134E4B2072CE1D90A
:105610000024DFE7002B02D1032005B0F0BD2C7081
:105620000020FAE70320F8E70320F6E70320F4E779
:1056300010B5884209D3904209D8401A190011F0D8
:10564000E7FC002905D1012000E0002010BD00206A
:10565000FCE70020FAE750434018704703284CD07D
:105660001BD8012832D002285ED104230B704B7066
:10567000033B8B701F33CB70374B4B60374B8B60CA
:10568000374BCB60374B0B61374B4B61374B8B61E3
:10569000374BCB61374B0B622EE0042844D10323F8
:1056A0000B704B70023B8B70CB70334B4B60334BAA
:1056B0008B60334BCB60334B0B61334B4B61334BC4
:1056C0008B61334BCB61334B0B6215E004230B70C2
:1056D0004B7004338B70CB702F4B4B602F4B8B6018
:1056E0002F4BCB602F4B0B612F4B4B612F4B8B61A3
:1056F0002F4BCB612F4B0B62704703230B704B700A
:10570000023B8B70CB702C4B4B602C4B8B602C4B2B
:10571000CB602C4B0B612C4B4B612C4B8B612C4B7E
:10572000CB612C4B0B62E7E704230B704B70043307
:105730008B70CB70184B4B60184B8B60184BCB6049
:10574000184B0B61184B4B61184B8B61184BCB619D
:10575000184B0B62D0E7C046696600108D650010DB
:10576000956500109D650010D96500103D6600101C
:105770004566001089660010B1660010B966001019
:10578000BD660010C5660010E166001015670010C8
:105790001D6700103D670010496400101963001078
:1057A0001F63001091630010AD63001011640010BE
:1057B0002564001051640010816400108964001099
:1057C0008D640010016500101D650010516500100A
:1057D000656500108565001007280FD90300083B98
:1057E000DBB2012B0CD903000A3BDBB2042B09D935
:1057F0000F38C0B2042807D9002000E0012070470C
:105800000220FCE70320FAE70420F8E710B50400C3
:10581000044B1B6A9847002803D0034B1B692000E8
:10582000984710BDF4310210181D002070B584B0E7
:105830000C000B4B1E560B4902F006F901000A4BF7
:105840005D6A01230393E4B20294002301930833B9
:105850000093073B32000120A84704B070BDC0464A
:1058600020210210D0200210F431021010B586B0B1
:10587000002304930378372B05D89B00724AD35832
:105880009F4601230493049B0593180006B010BDA6
:1058900001230493F7E701230493F4E70123C3569C
:1058A00001A8037005234370043B83705F33C3700A
:1058B000664B1B689022D2009A184260836002F007
:1058C0009EF80490DFE740230493DCE72023049351
:1058D000D9E70123C3565E4AD35C0493D3E75D4BFB
:1058E0000493D0E7FA239B000493CCE7FA23DB0070
:1058F0000493C8E7584B0493C5E7584B0493C2E799
:10590000FA2189005648FDF781FEFA23DB009C4608
:1059100060440490B7E7534B04934C4B1B689322AD
:10592000D2009A5C002AAED04F4A126A4F49595CA5
:105930004F48185C90470490A5E701230493A2E721
:10594000424B1B689022D2009446634404939AE72A
:105950003E4B1B68474A94466344049393E7602395
:10596000049390E7394B1B6804938CE7424B0493F4
:1059700089E7424B049386E73A4B0493334B1B6809
:105980009322D2009A5C002A00D17CE7364A546800
:10599000374A995C00790022A047049073E704AB72
:1059A00013221A70113A5A70013A9A706BE7022367
:1059B000049368E7254B1A689323DB00D35C002B24
:1059C00000D160E7284B9B7804935CE71F4B1B6872
:1059D0009322D2009A5C002A00D154E7224A9268AE
:1059E0002349585C904704904DE71E4B0493174B96
:1059F0001B689322D2009A5C002A00D143E71A4A1E
:105A000054681B4A995C00790122A04704903AE748
:105A10000223049337E70D4B1A689323DB00D35C12
:105A2000002B00D12FE7104BDB7804932BE70123E9
:105A3000C356134AD35C049325E7407840B211491A
:105A400002F002F804901EE7EC1F0210B8300020AC
:105A500028210210B80B0000881300007017000006
:105A600018FCFFFF2081051D181D00209A0400006E
:105A7000990400008C040000333399419A9909403D
:105A800020210210D020021030B583B003000B4A51
:105A900015680B4A116800784200121892008A18A3
:105AA000547A5A78996860000019C00028181C6957
:105AB0000094DB6801F054FD03B030BD903000204D
:105AC000B830002030B587B001236A461380002328
:105AD000937001930293039304931375037A002B3D
